:100000000C9434000C9498010C9451000C94510001
:100010000C9451000C9451000C9451000C9451001C
:100020000C9451000C9451000C9451000C9451000C
:100030000C9451000C9451000C9451000C945100FC
:100040000C9451000C9451000C9451000C945100EC
:100050000C9451000C9451000C9451000C945100DC
:100060000C9451000C94510011241FBECFEFD8E026
:10007000DEBFCDBF11E0A0E0B1E0EAE1F7E002C0F1
:1000800005900D92A031B107D9F711E0A0E1B1E0E0
:1000900001C01D92AF32B107E1F70E942E030C940C
:1000A0008B030C940000E1ECF0E080818861808398
:1000B000E2ECF0E080818660808387E68093C40074
:1000C0000895982F8091C00085FFFCCF9093C600C3
:1000D0008091C00086FFFCCF0895CF93DF93EC01A1
:1000E00002C00E94610089918823D9F7DF91CF91E6
:1000F000089582E480937C0083E880937A000895D9
:1001000080917A00806480937A0080917A0086FDE5
:10011000FCCF2091780030917900C9010895BC018D
:1001200040E050E020E030E0E0E2FEE414C08091E6
:100130007A00806480937A0080917A0086FDFCCFFB
:100140008091780090917900480F591FCF01019755
:10015000F1F72F5F3F4F261737074CF3CA010E9474
:100160003303CB0108958091C10088618093C10061
:100170008091C20086608093C20087E68093C400AD
:1001800082E480937C0083E880937A008AB1806F58
:100190008AB984B18F6384B9539A84EF91E020E9DE
:1001A00031E0F9013197F1F70197D9F7E89A809199
:1001B00069008160809369007894089587BD70E03C
:1001C000709389006093880048BD30E030938B00C5
:1001D00020938A00089584B5836A84BD85B58160C3
:1001E00085BDE0E8F0E08081896A8083E1E8F0E0A5
:1001F00080818160808308958AB180698AB9209A5C
:10020000289A80E991E020E931E0F9013197F1F78E
:100210000197D9F784E190E00E948F0090931E012E
:1002200080931D01289880E69AEE0197F1F75F9A76
:1002300080E991E020E931E0F9013197F1F7019788
:10024000D9F784E190E00E948F0090931901809388
:1002500018015F9880E69AEE0197F1F75C9A84EFB7
:1002600091E020E931E0F9013197F1F70197D9F7F1
:1002700088E290E00E948F00909315018093140112
:100280005C98E0E6FAEE3197F1F720911801309191
:10029000190140911D0150911E01F901E41BF50B5C
:1002A000E80FF91FF0932401E093230166277727D5
:1002B000621B730B641B750B880F991F680F791FE6
:1002C0007093200160931F01E13FF1056CF0653BE5
:1002D000710554F080E091E00E946D0082E091E0B1
:1002E0000E946D002B9A1FC0E93CF1056CF0693C3F
:1002F000710554F084E091E00E946D0082E091E08D
:100300000E946D002C9A0FC0E53BF10564F0633844
:1003100071054CF086E091E00E946D0082E091E072
:100320000E946D002D9A82E091E00E946D00089578
:100330001F920F920FB60F9211248F939F9380916B
:10034000100190911101892B61F48091B1008760B7
:100350008093B10081E090E09093110180931001AF
:100360000FC01092B1008091B20090E09093130101
:10037000809312011092B20010921101109210019C
:100380009F918F910F900FBE0F901F90189588E04E
:100390008BB98CED90E00197F1F71BB880911201B9
:1003A000909113019093170180931601809112018F
:1003B0009091130165E271E04AE050E00E945A0317
:1003C00085E291E00E946D0088E091E00E946D005E
:1003D00080911201909113010F971CF48AE091E033
:1003E00002C08DE091E00E946D000895CF93DF93ED
:1003F0000E94EB0017BC8EE690E0909389008093FA
:1004000088008FE788BD10928B0010928A00C0E0B0
:10041000D0E00E94FC000E94C7012196C430D105A3
:10042000C1F717BC10928900109288008AEF88BD2E
:1004300010928B0010928A0084E099E220E931E06A
:10044000F9013197F1F70197D9F717BC109289009C
:100450001092880018BC10928B0010928A0017BC72
:100460008EE690E090938900809388008FE788BDA6
:1004700010928B0010928A000E94FC000E94C7011B
:100480000E94FC000E94C7010E94FC000E94C7015C
:1004900017BC8AEF90E0909389008093880018BC85
:1004A00010928B0010928A008CE195E220E931E0F5
:1004B000F9013197F1F70197D9F717BC8EE690E073
:1004C00090938900809388008FE788BD10928B00FD
:1004D00010928A000E94FC000E94C7010E94FC004A
:1004E0000E94C7010E94FC000E94C70117BC8AEF4E
:1004F00090E0909389008093880018BC10928B0044
:1005000010928A0088E293E220E931E0F901319704
:10051000F1F70197D9F717BC8EE690E09093890028
:10052000809388008FE788BD10928B0010928A001C
:10053000C0E0D0E00E94FC000E94C7012196CB30B1
:10054000D105C1F717BC8AEF90E0909389008093A2
:10055000880018BC10928B0010928A0084E391E20C
:1005600020E931E0F9013197F1F70197D9F717BC8C
:100570008EE690E090938900809388008FE788BD95
:1005800010928B0010928A00C0E0D0E00E94FC0024
:100590000E94C7012196C430D105C1F717BC8AEF6C
:1005A00090E0909389008093880018BC10928B0093
:1005B00010928A0088E293E220E931E0F901319754
:1005C000F1F70197D9F717BC8EE690E09093890078
:1005D000809388008FE788BD10928B0010928A006C
:1005E0000E94FC000E94C7010E94FC000E94C701FB
:1005F00017BC10928900109288008AEF88BD109273
:100600008B0010928A008CE195E220E931E0F9013B
:100610003197F1F70197D9F717BC8EE690E09093E8
:100620008900809388008FE788BD10928B0010921C
:100630008A000E94FC000E94C7010E94FC000E94E8
:10064000C70117BC109289001092880018BC109244
:100650008B0010928A00DF91CF9108950E94B30021
:100660000E94F601FDCF97FB092E07260AD077FDE1
:1006700004D00CD006D000201AF4709561957F4FFD
:100680000895F6F7909581959F4F0895AA1BBB1B7F
:1006900051E107C0AA1FBB1FA617B70710F0A61B82
:1006A000B70B881F991F5A95A9F780959095BC01A3
:1006B000CD010895FB019F01E8944230C4F045321A
:1006C000B4F44A3029F497FB1EF4909581959F4F1E
:1006D000642F77270E944603805D8A330CF0895D82
:1006E0008193CB010097A1F716F45DE2519310823C
:1006F000C9010C947B03DC01FC01672F7191772306
:10070000E1F7329704C07C916D9370836291AE17CC
:0A071000BF07C8F30895F894FFCF67
:10071A0035000A00370036000900310A00300A00A5
:00000001FF
